{
  "_format": "hh-sol-artifact-1",
  "contractName": "AmongSpaceNFT",
  "sourceName": "contracts/AmongSpaceNFT.sol",
  "abi": [
    {
      "inputs": [],
      "stateMutability": "nonpayable",
      "type": "constructor"
    },
    {
      "inputs": [],
      "name": "ApprovalCallerNotOwnerNorApproved",
      "type": "error"
    },
    {
      "inputs": [],
      "name": "ApprovalQueryForNonexistentToken",
      "type": "error"
    },
    {
      "inputs": [],
      "name": "ApprovalToCurrentOwner",
      "type": "error"
    },
    {
      "inputs": [],
      "name": "ApproveToCaller",
      "type": "error"
    },
    {
      "inputs": [],
      "name": "BalanceQueryForZeroAddress",
      "type": "error"
    },
    {
      "inputs": [],
      "name": "MintToZeroAddress",
      "type": "error"
    },
    {
      "inputs": [],
      "name": "MintZeroQuantity",
      "type": "error"
    },
    {
      "inputs": [],
      "name": "MintedQueryForZeroAddress",
      "type": "error"
    },
    {
      "inputs": [],
      "name": "OwnerQueryForNonexistentToken",
      "type": "error"
    },
    {
      "inputs": [],
      "name": "TransferCallerNotOwnerNorApproved",
      "type": "error"
    },
    {
      "inputs": [],
      "name": "TransferFromIncorrectOwner",
      "type": "error"
    },
    {
      "inputs": [],
      "name": "TransferToNonERC721ReceiverImplementer",
      "type": "error"
    },
    {
      "inputs": [],
      "name": "TransferToZeroAddress",
      "type": "error"
    },
    {
      "anonymous": false,
      "inputs": [
        {
          "indexed": true,
          "internalType": "address",
          "name": "owner",
          "type": "address"
        },
        {
          "indexed": true,
          "internalType": "address",
          "name": "approved",
          "type": "address"
        },
        {
          "indexed": true,
          "internalType": "uint256",
          "name": "tokenId",
          "type": "uint256"
        }
      ],
      "name": "Approval",
      "type": "event"
    },
    {
      "anonymous": false,
      "inputs": [
        {
          "indexed": true,
          "internalType": "address",
          "name": "owner",
          "type": "address"
        },
        {
          "indexed": true,
          "internalType": "address",
          "name": "operator",
          "type": "address"
        },
        {
          "indexed": false,
          "internalType": "bool",
          "name": "approved",
          "type": "bool"
        }
      ],
      "name": "ApprovalForAll",
      "type": "event"
    },
    {
      "anonymous": false,
      "inputs": [
        {
          "indexed": true,
          "internalType": "address",
          "name": "previousOwner",
          "type": "address"
        },
        {
          "indexed": true,
          "internalType": "address",
          "name": "newOwner",
          "type": "address"
        }
      ],
      "name": "OwnershipTransferred",
      "type": "event"
    },
    {
      "anonymous": false,
      "inputs": [
        {
          "indexed": true,
          "internalType": "address",
          "name": "from",
          "type": "address"
        },
        {
          "indexed": true,
          "internalType": "address",
          "name": "to",
          "type": "address"
        },
        {
          "indexed": true,
          "internalType": "uint256",
          "name": "tokenId",
          "type": "uint256"
        }
      ],
      "name": "Transfer",
      "type": "event"
    },
    {
      "inputs": [
        {
          "internalType": "address",
          "name": "to",
          "type": "address"
        },
        {
          "internalType": "uint256",
          "name": "tokenId",
          "type": "uint256"
        }
      ],
      "name": "approve",
      "outputs": [],
      "stateMutability": "nonpayable",
      "type": "function"
    },
    {
      "inputs": [
        {
          "internalType": "address",
          "name": "owner",
          "type": "address"
        }
      ],
      "name": "balanceOf",
      "outputs": [
        {
          "internalType": "uint256",
          "name": "",
          "type": "uint256"
        }
      ],
      "stateMutability": "view",
      "type": "function"
    },
    {
      "inputs": [],
      "name": "baseExtension",
      "outputs": [
        {
          "internalType": "string",
          "name": "",
          "type": "string"
        }
      ],
      "stateMutability": "view",
      "type": "function"
    },
    {
      "inputs": [],
      "name": "baseURI",
      "outputs": [
        {
          "internalType": "string",
          "name": "",
          "type": "string"
        }
      ],
      "stateMutability": "view",
      "type": "function"
    },
    {
      "inputs": [],
      "name": "cost",
      "outputs": [
        {
          "internalType": "uint256",
          "name": "",
          "type": "uint256"
        }
      ],
      "stateMutability": "view",
      "type": "function"
    },
    {
      "inputs": [],
      "name": "emergencyWithdraw",
      "outputs": [],
      "stateMutability": "nonpayable",
      "type": "function"
    },
    {
      "inputs": [],
      "name": "finalize",
      "outputs": [],
      "stateMutability": "nonpayable",
      "type": "function"
    },
    {
      "inputs": [
        {
          "internalType": "uint256",
          "name": "tokenId",
          "type": "uint256"
        }
      ],
      "name": "getApproved",
      "outputs": [
        {
          "internalType": "address",
          "name": "",
          "type": "address"
        }
      ],
      "stateMutability": "view",
      "type": "function"
    },
    {
      "inputs": [
        {
          "internalType": "uint256",
          "name": "_mintAmount",
          "type": "uint256"
        },
        {
          "internalType": "address",
          "name": "_to",
          "type": "address"
        }
      ],
      "name": "giveMint",
      "outputs": [],
      "stateMutability": "nonpayable",
      "type": "function"
    },
    {
      "inputs": [
        {
          "internalType": "address",
          "name": "owner",
          "type": "address"
        },
        {
          "internalType": "address",
          "name": "operator",
          "type": "address"
        }
      ],
      "name": "isApprovedForAll",
      "outputs": [
        {
          "internalType": "bool",
          "name": "",
          "type": "bool"
        }
      ],
      "stateMutability": "view",
      "type": "function"
    },
    {
      "inputs": [],
      "name": "maxMintAmount",
      "outputs": [
        {
          "internalType": "uint256",
          "name": "",
          "type": "uint256"
        }
      ],
      "stateMutability": "view",
      "type": "function"
    },
    {
      "inputs": [],
      "name": "maxSupply",
      "outputs": [
        {
          "internalType": "uint256",
          "name": "",
          "type": "uint256"
        }
      ],
      "stateMutability": "view",
      "type": "function"
    },
    {
      "inputs": [
        {
          "internalType": "uint256",
          "name": "_mintAmount",
          "type": "uint256"
        }
      ],
      "name": "mint",
      "outputs": [],
      "stateMutability": "payable",
      "type": "function"
    },
    {
      "inputs": [],
      "name": "name",
      "outputs": [
        {
          "internalType": "string",
          "name": "",
          "type": "string"
        }
      ],
      "stateMutability": "view",
      "type": "function"
    },
    {
      "inputs": [],
      "name": "nftPerAddressLimit",
      "outputs": [
        {
          "internalType": "uint256",
          "name": "",
          "type": "uint256"
        }
      ],
      "stateMutability": "view",
      "type": "function"
    },
    {
      "inputs": [],
      "name": "notRevealedUri",
      "outputs": [
        {
          "internalType": "string",
          "name": "",
          "type": "string"
        }
      ],
      "stateMutability": "view",
      "type": "function"
    },
    {
      "inputs": [],
      "name": "onlyWhitelisted",
      "outputs": [
        {
          "internalType": "bool",
          "name": "",
          "type": "bool"
        }
      ],
      "stateMutability": "view",
      "type": "function"
    },
    {
      "inputs": [],
      "name": "owner",
      "outputs": [
        {
          "internalType": "address",
          "name": "",
          "type": "address"
        }
      ],
      "stateMutability": "view",
      "type": "function"
    },
    {
      "inputs": [
        {
          "internalType": "uint256",
          "name": "tokenId",
          "type": "uint256"
        }
      ],
      "name": "ownerOf",
      "outputs": [
        {
          "internalType": "address",
          "name": "",
          "type": "address"
        }
      ],
      "stateMutability": "view",
      "type": "function"
    },
    {
      "inputs": [
        {
          "internalType": "bool",
          "name": "_state",
          "type": "bool"
        }
      ],
      "name": "pause",
      "outputs": [],
      "stateMutability": "nonpayable",
      "type": "function"
    },
    {
      "inputs": [],
      "name": "paused",
      "outputs": [
        {
          "internalType": "bool",
          "name": "",
          "type": "bool"
        }
      ],
      "stateMutability": "view",
      "type": "function"
    },
    {
      "inputs": [],
      "name": "renounceOwnership",
      "outputs": [],
      "stateMutability": "nonpayable",
      "type": "function"
    },
    {
      "inputs": [
        {
          "internalType": "string",
          "name": "_baseURI",
          "type": "string"
        }
      ],
      "name": "reveal",
      "outputs": [],
      "stateMutability": "nonpayable",
      "type": "function"
    },
    {
      "inputs": [],
      "name": "revealed",
      "outputs": [
        {
          "internalType": "bool",
          "name": "",
          "type": "bool"
        }
      ],
      "stateMutability": "view",
      "type": "function"
    },
    {
      "inputs": [
        {
          "internalType": "address",
          "name": "from",
          "type": "address"
        },
        {
          "internalType": "address",
          "name": "to",
          "type": "address"
        },
        {
          "internalType": "uint256",
          "name": "tokenId",
          "type": "uint256"
        }
      ],
      "name": "safeTransferFrom",
      "outputs": [],
      "stateMutability": "nonpayable",
      "type": "function"
    },
    {
      "inputs": [
        {
          "internalType": "address",
          "name": "from",
          "type": "address"
        },
        {
          "internalType": "address",
          "name": "to",
          "type": "address"
        },
        {
          "internalType": "uint256",
          "name": "tokenId",
          "type": "uint256"
        },
        {
          "internalType": "bytes",
          "name": "_data",
          "type": "bytes"
        }
      ],
      "name": "safeTransferFrom",
      "outputs": [],
      "stateMutability": "nonpayable",
      "type": "function"
    },
    {
      "inputs": [
        {
          "internalType": "address",
          "name": "operator",
          "type": "address"
        },
        {
          "internalType": "bool",
          "name": "approved",
          "type": "bool"
        }
      ],
      "name": "setApprovalForAll",
      "outputs": [],
      "stateMutability": "nonpayable",
      "type": "function"
    },
    {
      "inputs": [
        {
          "internalType": "string",
          "name": "_newBaseExtension",
          "type": "string"
        }
      ],
      "name": "setBaseExtension",
      "outputs": [],
      "stateMutability": "nonpayable",
      "type": "function"
    },
    {
      "inputs": [
        {
          "internalType": "string",
          "name": "_baseURI",
          "type": "string"
        }
      ],
      "name": "setBaseURI",
      "outputs": [],
      "stateMutability": "nonpayable",
      "type": "function"
    },
    {
      "inputs": [
        {
          "internalType": "uint256",
          "name": "_newCost",
          "type": "uint256"
        }
      ],
      "name": "setCost",
      "outputs": [],
      "stateMutability": "nonpayable",
      "type": "function"
    },
    {
      "inputs": [
        {
          "internalType": "uint256",
          "name": "_newNftPerAddressLimit",
          "type": "uint256"
        }
      ],
      "name": "setNftPerAddressLimit",
      "outputs": [],
      "stateMutability": "nonpayable",
      "type": "function"
    },
    {
      "inputs": [
        {
          "internalType": "string",
          "name": "_notRevealedURI",
          "type": "string"
        }
      ],
      "name": "setNotRevealedURI",
      "outputs": [],
      "stateMutability": "nonpayable",
      "type": "function"
    },
    {
      "inputs": [
        {
          "internalType": "bool",
          "name": "_state",
          "type": "bool"
        }
      ],
      "name": "setOnlyWhitelisted",
      "outputs": [],
      "stateMutability": "nonpayable",
      "type": "function"
    },
    {
      "inputs": [
        {
          "internalType": "uint256",
          "name": "_newmaxMintAmount",
          "type": "uint256"
        }
      ],
      "name": "setmaxMintAmount",
      "outputs": [],
      "stateMutability": "nonpayable",
      "type": "function"
    },
    {
      "inputs": [
        {
          "internalType": "bytes4",
          "name": "interfaceId",
          "type": "bytes4"
        }
      ],
      "name": "supportsInterface",
      "outputs": [
        {
          "internalType": "bool",
          "name": "",
          "type": "bool"
        }
      ],
      "stateMutability": "view",
      "type": "function"
    },
    {
      "inputs": [],
      "name": "symbol",
      "outputs": [
        {
          "internalType": "string",
          "name": "",
          "type": "string"
        }
      ],
      "stateMutability": "view",
      "type": "function"
    },
    {
      "inputs": [],
      "name": "team1",
      "outputs": [
        {
          "internalType": "address",
          "name": "",
          "type": "address"
        }
      ],
      "stateMutability": "view",
      "type": "function"
    },
    {
      "inputs": [],
      "name": "team2",
      "outputs": [
        {
          "internalType": "address",
          "name": "",
          "type": "address"
        }
      ],
      "stateMutability": "view",
      "type": "function"
    },
    {
      "inputs": [],
      "name": "team3",
      "outputs": [
        {
          "internalType": "address",
          "name": "",
          "type": "address"
        }
      ],
      "stateMutability": "view",
      "type": "function"
    },
    {
      "inputs": [],
      "name": "team4",
      "outputs": [
        {
          "internalType": "address",
          "name": "",
          "type": "address"
        }
      ],
      "stateMutability": "view",
      "type": "function"
    },
    {
      "inputs": [],
      "name": "team5",
      "outputs": [
        {
          "internalType": "address",
          "name": "",
          "type": "address"
        }
      ],
      "stateMutability": "view",
      "type": "function"
    },
    {
      "inputs": [],
      "name": "team6",
      "outputs": [
        {
          "internalType": "address",
          "name": "",
          "type": "address"
        }
      ],
      "stateMutability": "view",
      "type": "function"
    },
    {
      "inputs": [
        {
          "internalType": "uint256",
          "name": "tokenId",
          "type": "uint256"
        }
      ],
      "name": "tokenURI",
      "outputs": [
        {
          "internalType": "string",
          "name": "",
          "type": "string"
        }
      ],
      "stateMutability": "view",
      "type": "function"
    },
    {
      "inputs": [],
      "name": "totalSupply",
      "outputs": [
        {
          "internalType": "uint256",
          "name": "",
          "type": "uint256"
        }
      ],
      "stateMutability": "view",
      "type": "function"
    },
    {
      "inputs": [
        {
          "internalType": "address",
          "name": "from",
          "type": "address"
        },
        {
          "internalType": "address",
          "name": "to",
          "type": "address"
        },
        {
          "internalType": "uint256",
          "name": "tokenId",
          "type": "uint256"
        }
      ],
      "name": "transferFrom",
      "outputs": [],
      "stateMutability": "nonpayable",
      "type": "function"
    },
    {
      "inputs": [
        {
          "internalType": "address",
          "name": "newOwner",
          "type": "address"
        }
      ],
      "name": "transferOwnership",
      "outputs": [],
      "stateMutability": "nonpayable",
      "type": "function"
    },
    {
      "inputs": [
        {
          "internalType": "address",
          "name": "",
          "type": "address"
        }
      ],
      "name": "whitelist",
      "outputs": [
        {
          "internalType": "bool",
          "name": "",
          "type": "bool"
        }
      ],
      "stateMutability": "view",
      "type": "function"
    },
    {
      "inputs": [
        {
          "internalType": "address[]",
          "name": "whitelistAddresses",
          "type": "address[]"
        }
      ],
      "name": "whitelistAdd",
      "outputs": [],
      "stateMutability": "nonpayable",
      "type": "function"
    },
    {
      "inputs": [
        {
          "internalType": "address[]",
          "name": "whitelistAddresses",
          "type": "address[]"
        }
      ],
      "name": "whitelistRemove",
      "outputs": [],
      "stateMutability": "nonpayable",
      "type": "function"
    },
    {
      "inputs": [],
      "name": "withdraw",
      "outputs": [],
      "stateMutability": "nonpayable",
      "type": "function"
    }
  ],
  "bytecode": "0x600a80546001600160a01b03199081167279aad86a8ab5e7f817fc149f1af62e001b50a517909155600b805482167357196dcec6a3e9c99e64f870f15108a61c18852f179055600c8054821673df1fb601d1008435e705300bb7a313fa6457beae179055600d805482167313998d044a7d576d76fda3ba294390bc49d22eee179055600e80548216733b85e28a6842ea32f546d15a61bea335fa923861179055600f805490911673709c8a4c1fb60db523cecd19652c9296ea7438b517905560c06040526005608081905264173539b7b760d91b60a0908152620000e7916011919062000229565b5060405180606001604052806035815260200162002d53603591398051620001189160129160209091019062000229565b50603260135567016345785d8a0000601455600360158190556016805462ffffff1916620100011790556018553480156200015257600080fd5b50604080518082018252600d81526c105b5bdb99d4dc1858d9539195609a1b60208083019182528351808501909452600384526220a9a760e91b908401528151919291620001a39160029162000229565b508051620001b990600390602084019062000229565b5050600160005550620001cc33620001d7565b60016009556200030b565b600880546001600160a01b038381166001600160a01b0319831681179093556040519116919082907f8be0079c531659141344cd1fd0a4f28419497f9722a3daafe3b4186f6b6457e090600090a35050565b8280546200023790620002cf565b90600052602060002090601f0160209004810192826200025b5760008555620002a6565b82601f106200027657805160ff1916838001178555620002a6565b82800160010185558215620002a6579182015b82811115620002a657825182559160200191906001019062000289565b50620002b4929150620002b8565b5090565b5b80821115620002b45760008155600101620002b9565b600181811c90821680620002e457607f821691505b6020821081036200030557634e487b7160e01b600052602260045260246000fd5b50919050565b612a38806200031b6000396000f3fe6080604052600436106102c95760003560e01c80636c0360eb11610175578063b88d4fde116100dc578063d5abeb0111610095578063e612c0ad1161006f578063e612c0ad14610844578063e985e9c514610864578063f2c4ce1e146108ad578063f2fde38b146108cd57600080fd5b8063d5abeb01146107f9578063da3ef23f1461080f578063db2e21bc1461082f57600080fd5b8063b88d4fde1461074e578063ba7d2c761461076e578063c668286214610784578063c87b56dd14610799578063d0eb26b0146107b9578063d53f6977146107d957600080fd5b806395d89b411161012e57806395d89b41146106965780639b19251a146106ab5780639c70b512146106db5780639cf94943146106fb578063a0712d681461071b578063a22cb4651461072e57600080fd5b80636c0360eb146105ee57806370a0823114610603578063715018a6146106235780637f00c7a6146106385780638c8d2ede146106585780638da5cb5b1461067857600080fd5b80632a404bb3116102345780634bb278f3116101ed5780635566136a116101c75780635566136a1461057457806355f804b3146105945780635c975abb146105b45780636352211e146105ce57600080fd5b80634bb278f3146105205780634c26124714610535578063518302271461055557600080fd5b80632a404bb31461046b57806338b105681461048b5780633c952764146104ab5780633ccfd60b146104cb57806342842e0e146104e057806344a0d68a1461050057600080fd5b80630c82b942116102865780630c82b942146103b457806313faede6146103d457806318160ddd146103f8578063239c70ae1461041557806323b872dd1461042b5780632977363d1461044b57600080fd5b806301ffc9a7146102ce57806302329a291461030357806306fdde0314610325578063081812fc14610347578063081c8c441461037f578063095ea7b314610394575b600080fd5b3480156102da57600080fd5b506102ee6102e93660046123e6565b6108ed565b60405190151581526020015b60405180910390f35b34801561030f57600080fd5b5061032361031e36600461241f565b61093f565b005b34801561033157600080fd5b5061033a610985565b6040516102fa9190612492565b34801561035357600080fd5b506103676103623660046124a5565b610a17565b6040516001600160a01b0390911681526020016102fa565b34801561038b57600080fd5b5061033a610a5b565b3480156103a057600080fd5b506103236103af3660046124d5565b610ae9565b3480156103c057600080fd5b506103236103cf3660046124ff565b610b76565b3480156103e057600080fd5b506103ea60145481565b6040519081526020016102fa565b34801561040457600080fd5b5060015460005403600019016103ea565b34801561042157600080fd5b506103ea60155481565b34801561043757600080fd5b50610323610446366004612574565b610c12565b34801561045757600080fd5b506103236104663660046125b0565b610c1d565b34801561047757600080fd5b50600e54610367906001600160a01b031681565b34801561049757600080fd5b50600c54610367906001600160a01b031681565b3480156104b757600080fd5b506103236104c636600461241f565b610d12565b3480156104d757600080fd5b50610323610d58565b3480156104ec57600080fd5b506103236104fb366004612574565b6110c2565b34801561050c57600080fd5b5061032361051b3660046124a5565b6110dd565b34801561052c57600080fd5b5061032361110c565b34801561054157600080fd5b50610323610550366004612668565b611144565b34801561056157600080fd5b506016546102ee90610100900460ff1681565b34801561058057600080fd5b50600f54610367906001600160a01b031681565b3480156105a057600080fd5b506103236105af366004612668565b611194565b3480156105c057600080fd5b506016546102ee9060ff1681565b3480156105da57600080fd5b506103676105e93660046124a5565b6111d1565b3480156105fa57600080fd5b5061033a6111e3565b34801561060f57600080fd5b506103ea61061e3660046126b1565b6111f0565b34801561062f57600080fd5b5061032361123f565b34801561064457600080fd5b506103236106533660046124a5565b611275565b34801561066457600080fd5b50600a54610367906001600160a01b031681565b34801561068457600080fd5b506008546001600160a01b0316610367565b3480156106a257600080fd5b5061033a6112a4565b3480156106b757600080fd5b506102ee6106c63660046126b1565b60176020526000908152604090205460ff1681565b3480156106e757600080fd5b506016546102ee9062010000900460ff1681565b34801561070757600080fd5b506103236107163660046124ff565b6112b3565b6103236107293660046124a5565b61134f565b34801561073a57600080fd5b506103236107493660046126cc565b611629565b34801561075a57600080fd5b506103236107693660046126f6565b6116be565b34801561077a57600080fd5b506103ea60185481565b34801561079057600080fd5b5061033a61170f565b3480156107a557600080fd5b5061033a6107b43660046124a5565b61171c565b3480156107c557600080fd5b506103236107d43660046124a5565b611890565b3480156107e557600080fd5b50600d54610367906001600160a01b031681565b34801561080557600080fd5b506103ea60135481565b34801561081b57600080fd5b5061032361082a366004612668565b6118bf565b34801561083b57600080fd5b506103236118fc565b34801561085057600080fd5b50600b54610367906001600160a01b031681565b34801561087057600080fd5b506102ee61087f366004612772565b6001600160a01b03918216600090815260076020908152604080832093909416825291909152205460ff1690565b3480156108b957600080fd5b506103236108c8366004612668565b6119cc565b3480156108d957600080fd5b506103236108e83660046126b1565b611a09565b60006001600160e01b031982166380ac58cd60e01b148061091e57506001600160e01b03198216635b5e139f60e01b145b8061093957506301ffc9a760e01b6001600160e01b03198316145b92915050565b6008546001600160a01b031633146109725760405162461bcd60e51b81526004016109699061279c565b60405180910390fd5b6016805460ff1916911515919091179055565b606060028054610994906127d1565b80601f01602080910402602001604051908101604052809291908181526020018280546109c0906127d1565b8015610a0d5780601f106109e257610100808354040283529160200191610a0d565b820191906000526020600020905b8154815290600101906020018083116109f057829003601f168201915b5050505050905090565b6000610a2282611aa1565b610a3f576040516333d1c03960e21b815260040160405180910390fd5b506000908152600660205260409020546001600160a01b031690565b60128054610a68906127d1565b80601f0160208091040260200160405190810160405280929190818152602001828054610a94906127d1565b8015610ae15780601f10610ab657610100808354040283529160200191610ae1565b820191906000526020600020905b815481529060010190602001808311610ac457829003601f168201915b505050505081565b6000610af4826111d1565b9050806001600160a01b0316836001600160a01b031603610b285760405163250fdee360e21b815260040160405180910390fd5b336001600160a01b03821614801590610b485750610b46813361087f565b155b15610b66576040516367d9dca160e11b815260040160405180910390fd5b610b71838383611ada565b505050565b6008546001600160a01b03163314610ba05760405162461bcd60e51b81526004016109699061279c565b60005b81811015610b7157600060176000858585818110610bc357610bc361280b565b9050602002016020810190610bd891906126b1565b6001600160a01b031681526020810191909152604001600020805460ff191691151591909117905580610c0a81612837565b915050610ba3565b610b71838383611b36565b6008546001600160a01b03163314610c475760405162461bcd60e51b81526004016109699061279c565b600082118015610c5957506015548211155b610c9b5760405162461bcd60e51b8152602060048201526013602482015272125b9d985b1a59081b5a5b9d08185b5bdd5b9d606a1b6044820152606401610969565b60135482610cac6000546000190190565b610cb69190612850565b1115610d045760405162461bcd60e51b815260206004820152601e60248201527f4e6f7420656e6f756768205370616365626f797320617661696c61626c6500006044820152606401610969565b610d0e8183611d4c565b5050565b6008546001600160a01b03163314610d3c5760405162461bcd60e51b81526004016109699061279c565b60168054911515620100000262ff000019909216919091179055565b6008546001600160a01b03163314610d825760405162461bcd60e51b81526004016109699061279c565b60004711610dd25760405162461bcd60e51b815260206004820152601c60248201527f4e6f7420656e6f75676820657468657220746f207769746864726177000000006044820152606401610969565b600a5447906000906001600160a01b03166103e8610df18460e1612868565b610dfb919061289d565b604051600081818185875af1925050503d8060008114610e37576040519150601f19603f3d011682016040523d82523d6000602084013e610e3c565b606091505b5050600b549091506000906001600160a01b03166103e8610e5e8560e1612868565b610e68919061289d565b604051600081818185875af1925050503d8060008114610ea4576040519150601f19603f3d011682016040523d82523d6000602084013e610ea9565b606091505b5050600c549091506000906001600160a01b03166103e8610ecb8660e1612868565b610ed5919061289d565b604051600081818185875af1925050503d8060008114610f11576040519150601f19603f3d011682016040523d82523d6000602084013e610f16565b606091505b5050600d549091506000906001600160a01b03166103e8610f388760e1612868565b610f42919061289d565b604051600081818185875af1925050503d8060008114610f7e576040519150601f19603f3d011682016040523d82523d6000602084013e610f83565b606091505b5050600e549091506000906001600160a01b03166103e8610fa5886028612868565b610faf919061289d565b604051600081818185875af1925050503d8060008114610feb576040519150601f19603f3d011682016040523d82523d6000602084013e610ff0565b606091505b5050600f546040519192506000916001600160a01b039091169047908381818185875af1925050503d8060008114611044576040519150601f19603f3d011682016040523d82523d6000602084013e611049565b606091505b505090508580156110575750845b80156110605750835b80156110695750825b80156110725750815b801561107b5750805b6110b95760405162461bcd60e51b815260206004820152600f60248201526e4661696c656420776974686472617760881b6044820152606401610969565b50505050505050565b610b71838383604051806020016040528060008152506116be565b6008546001600160a01b031633146111075760405162461bcd60e51b81526004016109699061279c565b601455565b6008546001600160a01b031633146111365760405162461bcd60e51b81526004016109699061279c565b6008546001600160a01b0316ff5b6008546001600160a01b0316331461116e5760405162461bcd60e51b81526004016109699061279c565b8051611181906010906020840190612337565b50506016805461ffff1916610101179055565b6008546001600160a01b031633146111be5760405162461bcd60e51b81526004016109699061279c565b8051610d0e906010906020840190612337565b60006111dc82611d66565b5192915050565b60108054610a68906127d1565b60006001600160a01b038216611219576040516323d3ad8160e21b815260040160405180910390fd5b506001600160a01b031660009081526005602052604090205467ffffffffffffffff1690565b6008546001600160a01b031633146112695760405162461bcd60e51b81526004016109699061279c565b6112736000611e8f565b565b6008546001600160a01b0316331461129f5760405162461bcd60e51b81526004016109699061279c565b601555565b606060038054610994906127d1565b6008546001600160a01b031633146112dd5760405162461bcd60e51b81526004016109699061279c565b60005b81811015610b71576001601760008585858181106113005761130061280b565b905060200201602081019061131591906126b1565b6001600160a01b031681526020810191909152604001600020805460ff19169115159190911790558061134781612837565b9150506112e0565b6002600954036113a15760405162461bcd60e51b815260206004820152601f60248201527f5265656e7472616e637947756172643a207265656e7472616e742063616c6c006044820152606401610969565b600260095560165460ff161561140a5760405162461bcd60e51b815260206004820152602860248201527f74686520636f6e7472616374206973207061757365642c206d696e7420697320604482015267191a5cd8589b195960c21b6064820152608401610969565b60008111801561141c57506015548111155b61145e5760405162461bcd60e51b8152602060048201526013602482015272125b9d985b1a59081b5a5b9d08185b5bdd5b9d606a1b6044820152606401610969565b6013548161146f6000546000190190565b6114799190612850565b11156114c75760405162461bcd60e51b815260206004820152601e60248201527f4e6f7420656e6f756768205370616365626f797320617661696c61626c6500006044820152606401610969565b60165462010000900460ff1615156001036115af573360009081526017602052604090205460ff1615156001146115405760405162461bcd60e51b815260206004820152601760248201527f55736572206973206e6f742077686974656c69737465640000000000000000006044820152606401610969565b6018548161154d33611ee1565b6115579190612850565b11156115af5760405162461bcd60e51b815260206004820152602160248201527f4d696e7420616d6f756e742065786365656420796f757220574c206c696d69746044820152601760f91b6064820152608401610969565b806014546115bd9190612868565b3410156116015760405162461bcd60e51b8152602060048201526012602482015271496e73756666696369656e742066756e647360701b6044820152606401610969565b61160b3382611d4c565b6116218160145461161c9190612868565b611f37565b506001600955565b336001600160a01b038316036116525760405163b06307db60e01b815260040160405180910390fd5b3360008181526007602090815260408083206001600160a01b03871680855290835292819020805460ff191686151590811790915590519081529192917f17307eab39ab6107e8899845ad3d59bd9653f200f220920489ca2b5937696c31910160405180910390a35050565b6116c9848484611b36565b6001600160a01b0383163b151580156116eb57506116e984848484611f75565b155b15611709576040516368d2bf6b60e11b815260040160405180910390fd5b50505050565b60118054610a68906127d1565b606061172782611aa1565b61178b5760405162461bcd60e51b815260206004820152602f60248201527f4552433732314d657461646174613a2055524920717565727920666f72206e6f60448201526e3732bc34b9ba32b73a103a37b5b2b760891b6064820152608401610969565b601654610100900460ff16151560000361183157601280546117ac906127d1565b80601f01602080910402602001604051908101604052809291908181526020018280546117d8906127d1565b80156118255780601f106117fa57610100808354040283529160200191611825565b820191906000526020600020905b81548152906001019060200180831161180857829003601f168201915b50505050509050919050565b600060108054611840906127d1565b90501161185c5760405180602001604052806000815250610939565b601061186783612061565b601160405160200161187b9392919061294a565b60405160208183030381529060405292915050565b6008546001600160a01b031633146118ba5760405162461bcd60e51b81526004016109699061279c565b601855565b6008546001600160a01b031633146118e95760405162461bcd60e51b81526004016109699061279c565b8051610d0e906011906020840190612337565b6008546001600160a01b031633146119265760405162461bcd60e51b81526004016109699061279c565b600a546040516000916001600160a01b03169047908381818185875af1925050503d8060008114611973576040519150601f19603f3d011682016040523d82523d6000602084013e611978565b606091505b50509050806119c95760405162461bcd60e51b815260206004820152601960248201527f4661696c656420456d657267656e6379205769746864726177000000000000006044820152606401610969565b50565b6008546001600160a01b031633146119f65760405162461bcd60e51b81526004016109699061279c565b8051610d0e906012906020840190612337565b6008546001600160a01b03163314611a335760405162461bcd60e51b81526004016109699061279c565b6001600160a01b038116611a985760405162461bcd60e51b815260206004820152602660248201527f4f776e61626c653a206e6577206f776e657220697320746865207a65726f206160448201526564647265737360d01b6064820152608401610969565b6119c981611e8f565b600081600111158015611ab5575060005482105b8015610939575050600090815260046020526040902054600160e01b900460ff161590565b60008281526006602052604080822080546001600160a01b0319166001600160a01b0387811691821790925591518593918516917f8c5be1e5ebec7d5bd14f71427d1e84f3dd0314c0f7b2291e5b200ac8c7c3b92591a4505050565b6000611b4182611d66565b80519091506000906001600160a01b0316336001600160a01b03161480611b6f57508151611b6f903361087f565b80611b8a575033611b7f84610a17565b6001600160a01b0316145b905080611baa57604051632ce44b5f60e11b815260040160405180910390fd5b846001600160a01b031682600001516001600160a01b031614611bdf5760405162a1148160e81b815260040160405180910390fd5b6001600160a01b038416611c0657604051633a954ecd60e21b815260040160405180910390fd5b611c166000848460000151611ada565b6001600160a01b038581166000908152600560209081526040808320805467ffffffffffffffff1980821667ffffffffffffffff92831660001901831617909255898616808652838620805493841693831660019081018416949094179055898652600490945282852080546001600160e01b031916909417600160a01b429092169190910217909255908601808352912054909116611d0257600054811015611d02578251600082815260046020908152604090912080549186015167ffffffffffffffff16600160a01b026001600160e01b03199092166001600160a01b03909316929092171790555b5082846001600160a01b0316866001600160a01b03167fddf252ad1be2c89b69c2b068fc378daa952ba7f163c4a11628f55a4df523b3ef60405160405180910390a45b5050505050565b610d0e828260405180602001604052806000815250612162565b60408051606081018252600080825260208201819052918101919091528180600111158015611d96575060005481105b15611e7657600081815260046020908152604091829020825160608101845290546001600160a01b0381168252600160a01b810467ffffffffffffffff1692820192909252600160e01b90910460ff16151591810182905290611e745780516001600160a01b031615611e0a579392505050565b5060001901600081815260046020908152604091829020825160608101845290546001600160a01b038116808352600160a01b820467ffffffffffffffff1693830193909352600160e01b900460ff1615159281019290925215611e6f579392505050565b611e0a565b505b604051636f96cda160e11b815260040160405180910390fd5b600880546001600160a01b038381166001600160a01b0319831681179093556040519116919082907f8be0079c531659141344cd1fd0a4f28419497f9722a3daafe3b4186f6b6457e090600090a35050565b60006001600160a01b038216611f0a576040516335ebb31960e01b815260040160405180910390fd5b506001600160a01b0316600090815260056020526040902054600160401b900467ffffffffffffffff1690565b803411156119c957336108fc611f4d833461297d565b6040518115909202916000818181858888f19350505050158015610d0e573d6000803e3d6000fd5b604051630a85bd0160e11b81526000906001600160a01b0385169063150b7a0290611faa903390899088908890600401612994565b6020604051808303816000875af1925050508015611fe5575060408051601f3d908101601f19168201909252611fe2918101906129d1565b60015b612043573d808015612013576040519150601f19603f3d011682016040523d82523d6000602084013e612018565b606091505b50805160000361203b576040516368d2bf6b60e11b815260040160405180910390fd5b805181602001fd5b6001600160e01b031916630a85bd0160e11b1490505b949350505050565b6060816000036120885750506040805180820190915260018152600360fc1b602082015290565b8160005b81156120b2578061209c81612837565b91506120ab9050600a8361289d565b915061208c565b60008167ffffffffffffffff8111156120cd576120cd6125dc565b6040519080825280601f01601f1916602001820160405280156120f7576020820181803683370190505b5090505b84156120595761210c60018361297d565b9150612119600a866129ee565b612124906030612850565b60f81b8183815181106121395761213961280b565b60200101906001600160f81b031916908160001a90535061215b600a8661289d565b94506120fb565b610b7183838360016000546001600160a01b03851661219357604051622e076360e81b815260040160405180910390fd5b836000036121b45760405163b562e8dd60e01b815260040160405180910390fd5b6001600160a01b038516600081815260056020908152604080832080546fffffffffffffffffffffffffffffffff19811667ffffffffffffffff8083168c018116918217600160401b67ffffffffffffffff1990941690921783900481168c01811690920217909155858452600490925290912080546001600160e01b031916909217600160a01b42909216919091021790558080850183801561226157506001600160a01b0387163b15155b156122e9575b60405182906001600160a01b038916906000907fddf252ad1be2c89b69c2b068fc378daa952ba7f163c4a11628f55a4df523b3ef908290a46122b26000888480600101955088611f75565b6122cf576040516368d2bf6b60e11b815260040160405180910390fd5b8082036122675782600054146122e457600080fd5b61232e565b5b6040516001830192906001600160a01b038916906000907fddf252ad1be2c89b69c2b068fc378daa952ba7f163c4a11628f55a4df523b3ef908290a48082036122ea575b50600055611d45565b828054612343906127d1565b90600052602060002090601f01602090048101928261236557600085556123ab565b82601f1061237e57805160ff19168380011785556123ab565b828001600101855582156123ab579182015b828111156123ab578251825591602001919060010190612390565b506123b79291506123bb565b5090565b5b808211156123b757600081556001016123bc565b6001600160e01b0319811681146119c957600080fd5b6000602082840312156123f857600080fd5b8135612403816123d0565b9392505050565b8035801515811461241a57600080fd5b919050565b60006020828403121561243157600080fd5b6124038261240a565b60005b8381101561245557818101518382015260200161243d565b838111156117095750506000910152565b6000815180845261247e81602086016020860161243a565b601f01601f19169290920160200192915050565b6020815260006124036020830184612466565b6000602082840312156124b757600080fd5b5035919050565b80356001600160a01b038116811461241a57600080fd5b600080604083850312156124e857600080fd5b6124f1836124be565b946020939093013593505050565b6000806020838503121561251257600080fd5b823567ffffffffffffffff8082111561252a57600080fd5b818501915085601f83011261253e57600080fd5b81358181111561254d57600080fd5b8660208260051b850101111561256257600080fd5b60209290920196919550909350505050565b60008060006060848603121561258957600080fd5b612592846124be565b92506125a0602085016124be565b9150604084013590509250925092565b600080604083850312156125c357600080fd5b823591506125d3602084016124be565b90509250929050565b634e487b7160e01b600052604160045260246000fd5b600067ffffffffffffffff8084111561260d5761260d6125dc565b604051601f8501601f19908116603f01168101908282118183101715612635576126356125dc565b8160405280935085815286868601111561264e57600080fd5b858560208301376000602087830101525050509392505050565b60006020828403121561267a57600080fd5b813567ffffffffffffffff81111561269157600080fd5b8201601f810184136126a257600080fd5b612059848235602084016125f2565b6000602082840312156126c357600080fd5b612403826124be565b600080604083850312156126df57600080fd5b6126e8836124be565b91506125d36020840161240a565b6000806000806080858703121561270c57600080fd5b612715856124be565b9350612723602086016124be565b925060408501359150606085013567ffffffffffffffff81111561274657600080fd5b8501601f8101871361275757600080fd5b612766878235602084016125f2565b91505092959194509250565b6000806040838503121561278557600080fd5b61278e836124be565b91506125d3602084016124be565b6020808252818101527f4f776e61626c653a2063616c6c6572206973206e6f7420746865206f776e6572604082015260600190565b600181811c908216806127e557607f821691505b60208210810361280557634e487b7160e01b600052602260045260246000fd5b50919050565b634e487b7160e01b600052603260045260246000fd5b634e487b7160e01b600052601160045260246000fd5b60006001820161284957612849612821565b5060010190565b6000821982111561286357612863612821565b500190565b600081600019048311821515161561288257612882612821565b500290565b634e487b7160e01b600052601260045260246000fd5b6000826128ac576128ac612887565b500490565b8054600090600181811c90808316806128cb57607f831692505b602080841082036128ec57634e487b7160e01b600052602260045260246000fd5b81801561290057600181146129115761293e565b60ff1986168952848901965061293e565b60008881526020902060005b868110156129365781548b82015290850190830161291d565b505084890196505b50505050505092915050565b600061295682866128b1565b845161296681836020890161243a565b612972818301866128b1565b979650505050505050565b60008282101561298f5761298f612821565b500390565b6001600160a01b03858116825284166020820152604081018390526080606082018190526000906129c790830184612466565b9695505050505050565b6000602082840312156129e357600080fd5b8151612403816123d0565b6000826129fd576129fd612887565b50069056fea264697066735822122045250f5417e64d84e555ea31dc7389222ee5271f14f19172d968f3633efb557764736f6c634300080e0033697066733a2f2f516d533834727a684662537278376968396438337770596f724479534671433832335079693253714a565a78356e",
  "linkReferences": {},
  "deployedLinkReferences": {}
}